:0C0000000C9455000C9400000C940000BF
:10000C000C9400000C9400000C9400000C94000064
:10001C000C9400000C9400000C9400000C94000054
:10002C000C9400000C9400000C9400000C94000044
:10003C000C9400000C9400000C9400000C94000034
:10004C000C9400000C9400000C9400000C94000024
:10005C000C9400000C9400000C9400000C94000014
:10006C000C9400000C9400000C9400000C94000004
:10007C000C9400000C9400000C9400000C940000F4
:10008C0048656C6C6F212120576F726C6400417451
:10009C006D656C2041546D65676131323800F894A0
:1000AC00EE27ECBBF1E0F5BFE5BFE0936C008DE013
:1000BC00A2E0BB27ED938A95E9F780E090E1A0E000
:1000CC00B1E0ED930197E9F78BBFEFEFEDBFE0E106
:1000DC00EEBFC0E0D5E00C9473000CD0A0E831D09A
:1000EC00ACE8B0E01ED0A0EC2CD0AAE9B0E019D05E
:1000FC00FFCFFFCFEFEFE4BBAA98AFE0B0E04ED05C
:10010C00A0E21FD088EC90E00197F1F7A0E219D0A3
:10011C00A8E217D0ACE015D0A1E013D0A0E611D026
:10012C0008951A930A938D01F801E491E03031F0AF
:10013C00F8010F5F1F4FA49109D0F6CF09911991C7
:10014C00089517D0A8981CD0A89804C012D0A89ACB
:10015C0017D0A89AA99883E08A95F1F7AA9A83E018
:10016C008A95F1F7AA9819910895A2E0B0E016D0FB
:10017C0008951A931A2FF9DFE12FE07FE5BB08955C
:10018C00A99883E08A95F1F7AA9A83E08A95F1F70A
:10019C00AA98E12FE295E07FE5BB0895109639F01F
:1001AC00A89580ED97E00197F1F71197C9F708959D
:00000001FF
