:020000000C945E
:100002006F000C9400000C9400000C9400000C94FF
:1000120000000C9400000C9400000C9400000C945E
:1000220000000C9400000C9400000C9400000C944E
:1000320000000C9400000C9400000C9400000C943E
:1000420000000C9400000C9400000C9400000C942E
:1000520000000C9400000C9400000C9400000C941E
:1000620000000C9400000C9400000C9400000C940E
:1000720000000C9400000C9400000C9400000C94FE
:1000820000000C9400000C9400001027E8036400A8
:100092000A000100001000011000010020204E6F34
:1000A2002053776974636800535731204F4E0053D1
:1000B2005732204F4E00535733204F4E0053573480
:1000C200204F4E002020204E6F20537769746368C2
:1000D200000080C002000005D4000000F894EE2762
:1000E200ECBBF1E0F5BFE5BFE0936C008DE0A2E070
:1000F200BB27ED938A95E9F780E090E1A0E0B1E0BB
:10010200ED930197E9F7E6EDF0E08591959100977F
:1001120061F0A591B59105901590BF01F001059090
:100122000D920197E1F7FB01F0CF8BBFEFEFEDBF2F
:10013200E0E1EEBFC0E0D5E00C949F00EFEFEBBB37
:10014200E0E0EABBEFEFE5BBE4BBA0E1C9D0E0E051
:10015200EA93A0E06ED0A4EFB1E0F8D0AEE9B0E04F
:100162009CD019B31F70A4E6B0E0F0D0E12FF0E00C
:10017200EE30A0E0FA0721F4E5D0AAEAB0E01BC015
:10018200ED30A0E0FA0721F4DDD0A1EBB0E013C01E
:10019200EB30A0E0FA0721F4D5D0A8EBB0E00BC019
:1001A200E730A0E0FA0721F4CDD0AFEBB0E003C016
:1001B200C9D0A6ECB0E071D0D4CFFFCFFFE0FA9562
:1001C200F1F70895A4B3AF70A4BBA99AA898F6DF7B
:1001D200AA9AF4DFA3B3AA98F1DFAA9AEFDFAA984A
:1001E200A7FDF5CF0895A07FAB2BA5BBAA9AE6DFAA
:1001F200AA98E4DF0895AA93A998A4B3A76FA4BB11
:10020200B5B3BF70A881EFDFA881A295ECDFA99AF0
:100212000C94A101AA9AD2DFE3B3AA98CFDFE07FC0
:100222000895CCDFF7DFAE2FF5DFA998E295EA2B30
:100232000895AA93C7DFE881F0E0E050FB4FE08128
:10024200A981AE0FD8DF5980488022960895BADF7F
:10025200A2E0D1DFB7DFACE0CEDFB4DFA1E0CBDFDD
:10026200E0E04E2E5E2E0895AA93EF93FF93A881AD
:100272006894AA3019F0E894571430F04394E0E0FF
:10028200EA93A42DD6DF2EF053949CDFA89AA8817E
:10029200B2DFFF91EF910C94A101BA93AA931A9342
:1002A200E981FA813196E983FA833197E4911E2F2D
:1002B200E03019F0A12FD8DFF3CF188123960895EB
:1002C200AA27BB271197F1F70895AA93A998A4B377
:1002D200A76FA4BBB5B3BF70A88185DFA99A30C050
:1002E200AA93AA98A8987880E881E058E09302053A
:1002F200E881E054E0930305E3DFA0E3E6DFE0DF1B
:10030200A0E3E3DFDDDFA0E3E0DFDADFA0E2DDDFB1
:10031200D7DFA8E270DFD4DFA4E06DDFD1DFA5E88C
:100322006ADFCEDFA4B3AF70A4BBA99A7ADFE5304F
:1003320011F0E0E005C046DFA6E05DDF88DFE1E026
:100342002196089584DFAAE0B0E000C0109639F04B
:10035200A89580ED97E00197F1F71197C9F70895F5
:00000001FF
