:080000000C9477000C94000041
:100008000C9400000C9400000C9400000C94DE008A
:100018000C94EC000C94FA000C9408010C94000069
:100028000C9400000C9400000C9400000C94000048
:100038000C9400000C9400000C9400000C94000038
:100048000C9400000C9400000C9400000C94000028
:100058000C9400000C9400000C9400000C94000018
:100068000C9400000C9400000C9400000C94000008
:100078000C9400000C9400000C9400000C940000F8
:100088000C9400001027E80364000A000100001027
:10009800000110000100000031666C6F6F7232665B
:1000A8006C6F6F7233666C6F6F7234666C6F6F72E1
:1000B8002E2A2E2048656C6C6F21202E2A2E80C097
:1000C800020004009E0006000005A00006000705C7
:1000D800A60006000E05AC0006001505B2000200D9
:1000E8001C05C6000000F894EE27ECBBF1E0F5BF54
:1000F800E5BFE0936C008DE0A2E0BB27ED938A9505
:10010800E9F780E090E1A0E0B1E0ED930197E9F72D
:10011800E8ECF0E085919591009761F0A591B59193
:1001280005901590BF01F00105900D920197E1F738
:10013800FB01F0CF8BBFEFEFEDBFE0E1EEBFC0E01A
:10014800D5E00C94A700E0E0F5E02F01EAEAEABF69
:10015800E0EFE9BF7894A9E104D1BCD034D1E0E064
:10016800EA93A0E0A9D0D201DBD066247724EAE0A4
:10017800F0E06E167F063CF42AD1ACE17FD0F301A3
:1001880031963F01F4CF1FD1EAE0EA93A1E094D081
:10019800D201C6D0EAE0F0E04F01002480149004B8
:1001A8003CF015D1A8E16AD0F40131974F01F5CFA1
:1001B800D5CFFFCF10D1E0E0F5E02F0104D119D160
:1001C80019F48A92A1E002C06A92A0E075D029C011
:1001D80002D1E7E0F5E02F01F6D00BD119F48A92AD
:1001E800A1E002C06A92A0E067D01BC0F4D0EEE0A4
:1001F800F5E02F01E8D0FDD019F48A92A1E002C001
:100208006A92A0E059D00DC0E6D0E5E1F5E02F01F3
:10021800DAD0EFD019F48A92A1E002C06A92A0E085
:100228004BD0D2017DD0E991EFBFF991E991B99115
:10023800A9919991899179916991F9901990099069
:100248001895FFE0FA95F1F70895AAB3AF70AABB25
:10025800D99AD898F6DFDA9AF4DFA9B3DA98F1DFF9
:10026800DA9AEFDFDA98A7FDF5CF0895A07FAB2BD8
:10027800ABBBDA9AE6DFDA98E4DF0895AA93D99857
:10028800AAB3A76FAABBBBB3BF70A881EFDFA881D1
:10029800A295ECDFD99A0C94E501DA9AD2DFE9B39A
:1002A800DA98CFDFE07F0895CCDFF7DFAE2FF5DFF8
:1002B800D998E295EA2B0895AA93C7DFE881F0E080
:1002C800E45EFA4FE081A981AE0FD8DFB980A8803B
:1002D80022960895BADFA2E0D1DFB7DFACE0CEDF27
:1002E800B4DFA1E0CBDFE0E0AE2EBE2E0895AA93E6
:1002F800EF93FF93A8816894AA3019F0E894BD148D
:1003080030F0A394E0E0EA93AA2DD6DF2EF0B39460
:100318009CDFD89AA881B2DFFF91EF910C94E50198
:10032800BA93AA931A93A981BA81ED91A983BA8342
:100338001E2FE03019F0A12FDADFF5CF18812396B0
:100348000895AA27BB271197F1F70895AA93D9987A
:10035800AAB3A76FAABBBBB3BF70A88187DFD99A1E
:1003680030C0AA93DA98D898D880E881E058E0930A
:100378001E05E881E054E0931F05E3DFA0E3E6DF14
:10038800E0DFA0E3E3DFDDDFA0E3E0DFDADFA0E228
:10039800DDDFD7DFA8E272DFD4DFA4E06FDFD1DFD3
:1003A800A5E86CDFCEDFAAB3AF70AABBD99A7CDF11
:1003B800E53011F0E0E005C048DFA6E05FDF8ADF46
:1003C800E1E02196089586DFA4E6B0E017C0AEE527
:1003D800B1E014D03ACF0A921A92FA926A937A93B9
:1003E8008A939A93AA93BA93EA93FA93EFB7EA9304
:1003F8000895E8E0F0E0E615F7050895109639F05D
:10040800A89580ED97E00197F1F71197C9F708953E
:00000001FF
