:020000000C945E
:100002005B000C948B000C94A7000C94C3000C941E
:1000120000000C9400000C9400000C9400000C945E
:1000220000000C9400000C9400000C9400000C944E
:1000320000000C9400000C9400000C9400000C943E
:1000420000000C9400000C9400000C9400000C942E
:1000520000000C9400000C9400000C9400000C941E
:1000620000000C9400000C9400000C9400000C940E
:1000720000000C9400000C9400000C9400000C94FE
:1000820000000C9400000C9400000000000000002E
:1000920000000000C0F9A4B0999282D880980100B3
:1000A2000A0004008C000A000005960001000C05FD
:1000B200A0000000F894EE27ECBBF1E0F5BFE5BF2D
:1000C200E0936C008DE0A2E0BB27ED938A95E9F7FF
:1000D20080E090E1A0E0B1E0ED930197E9F7E2EA78
:1000E200F0E085919591009761F0A591B591059009
:1000F2001590BF01F00105900D920197E1F7FB0108
:10010200F0CF8BBFEFEFEDBFE0E1EEBFC0E0D5E097
:100112000C94EC00FDD0809918C0A1E0B0E0F6D1BB
:10012200809911C003D127D150D111F4E1E0E5BB90
:1001320061D1119711F4E2E0E5BB5CD1129711F4A1
:10014200E2E0E5BBEDCF5BD1E6CF37C0E1D08199EC
:1001520018C0A1E0B0E0DAD1819911C0E7D00BD18B
:1001620034D111F4E1E0E5BB45D1119711F4E2E09D
:10017200E5BB40D1129711F4E2E0E5BBEDCF47D1E8
:10018200E6CF1BC0C5D0829918C0A1E0B0E0BED1B5
:10019200829911C0CBD0EFD018D111F4E1E0E5BBC8
:1001A20029D1119711F4E2E0E5BB24D1129711F4A1
:1001B200E2E0E5BBEDCF33D1E6CFE991EFBFF991B4
:1001C200E991B991A9919991899179916991F9905E
:1001D200199009901895EAE2E0936A00E7E0E9BF16
:1001E2007894E0E0E8BBEFEFE7BBE0E0E5BBEFEFE0
:1001F200E4BBE0E0EBBBEFEFEABB19D11DD12F016D
:1002020016D1EAE0F0E066D13F011ED115D14F01CF
:100212001BD1EAE0F0E05ED15F011BD10DD16F018D
:1002220018D1EAE0F0E056D1E0930A05F0930B050D
:100232007DD0A1D0CAD011F4E1E0E5BBDBD01197AB
:1002420011F4E2E0E5BBD6D0129711F4E2E0E5BB8F
:10025200A6E1B5E0ED91FD913196FE93EE93A0916A
:100262001605B0911705A63AE0E0BE0739F4E1E0C1
:10027200F0E0E0931605F0931705C1D0EAD0DC97C1
:1002820034F0C5D0E0E0E0931005E0931105DCD036
:10029200DC9734F0C4D0E0E0E0931205E09313055C
:1002A200A0910C05B0910D05D9D0DDD059F0E0E058
:1002B200E0930C05E0930D05E1E0F0E0D9D0ECE02D
:1002C200F0E0DBD097D0CAD0EDE0F0E0E5D0E0215D
:1002D20031F0E1E0F0E0D1D0E2E0F0E0C9D08AD044
:1002E200E2E0F0E0D3D00E2EA2D0BDD079F0E1E072
:1002F200F0E0E0930C05F0930D05E0E0E0930E05CD
:10030200E0930F05E0931405E093150576CFFFCF38
:100312000A921A92FA926A937A938A939A93AA9376
:10032200BA93EA93FA93EFB7EA930895C098C19A01
:10033200C29AC39AC49AC59AA0E0B5E0A40DB51DAD
:10034200EC91EBBBA1E0B0E0E1D0C09AC198C29AB7
:10035200C39AC49AC59AA0E0B5E0A60DB71DEC9168
:10036200EBBBA1E0B0E0D2D0C09AC19AC298C39AC6
:10037200C49AC59A0895A0E0B5E0A80DB91DEC9104
:10038200EBBBA1E0B0E0C2D0C09AC19AC29AC398B6
:10039200C49AC59AA0E0B5E0AA0DBB1DEC91EBBBD7
:1003A200A1E0B0E0B3D0C09AC19AC29AC39AC498ED
:1003B200C59AA0E0B5E0AC0DBD1DEC91EBBBA1E090
:1003C200B0E0A4D0C09AC19A0895C29AC39AC49ABE
:1003D200C598E0910A05F0910B05E050FB4FE081D2
:1003E200EBBBA1E0B0E092D0A0910C05B0910D055D
:1003F20011970895A0910E05B0910F050895A0E1FF
:10040200B5E0ED91FD913196FE93EE930895A2E150
:10041200B5E0ED91FD913196FE93EE930895A4E13E
:10042200B5E0ED91FD913196FE93EE930895A09182
:100432001405B09115050895E4E6F0E04BD0DF0114
:10044200EAE0F0E042D00895A0911205B0911305C0
:100452000895A0911005B09111050895E1E0F0E032
:1004620015D00E2EE4CFECE0F0E016D0E021089596
:10047200E0930E05F0930F050895E0931405F093B1
:1004820015050895F195E195F0400895EA17FB07E7
:10049200E1E009F0EE270895AE17BF07E1E00CF4A2
:1004A200EE2708950024112490E1AA0FBB1F001C1F
:1004B200111C0E1A1F0A18F40E0E1F1E01C0A16095
:1004C2009A9599F7FD01D001089512D0EBDF0EF451
:1004D200D9DF0895E894B7FF04C0B195A195B04063
:1004E2006894F7FDCFDFDEDFFD010EF4CBDF089568
:1004F200E894F7FF02C0C6DF6894B7FF06C0B19563
:10050200A195B04000F8039400FA0895109639F0CE
:10051200A89580ED97E00197F1F71197C9F7089533
:00000001FF
