:0A0000000C9454000C9400000C94C2
:10000A0000000C9400000C9400000C9400000C9466
:10001A0000000C9400000C9400000C9400000C9456
:10002A0000000C9400000C9400000C9400000C9446
:10003A0000000C9400000C9400000C9400000C9436
:10004A0000000C9400000C9400000C9400000C9426
:10005A0000000C9400000C9400000C9400000C9416
:10006A0000000C9400000C9400000C9400000C9406
:10007A0000000C9400000C9400000C9400000C94F6
:10008A0000001027E80364000A00010000100001C4
:10009A001000010080C0020000059E000000F894D4
:1000AA00EE27ECBBF1E0F5BFE5BFE0936C008DE015
:1000BA00A2E0BB27ED938A95E9F780E090E1A0E002
:1000CA00B1E0ED930197E9F7E0EAF0E085919591C7
:1000DA00009761F0A591B59105901590BF01F001C7
:1000EA0005900D920197E1F7FB01F0CF8BBFEFEF7F
:1000FA00EDBFE0E1EEBFC0E0D5E00C9484002497A8
:10010A00E1E4E883E6E5E983E2E5EA83E0E0EB831C
:10011A00EFEFE5BBE4BBA0E1B3D0E0E0EA93A0E0F7
:10012A005AD0A4EFB1E0E2D0DE0189D001E010E0BC
:10013A000E30E0E01E0734F417D0ACE1D3D00F5FE5
:10014A001F4FF6CF01E010E00E30E0E01E0734F456
:10015A000BD0A8E1C7D00F5F1F4FF6CFE7CFFFCF75
:10016A00FFE0FA95F1F70895A4B3AF70A4BBA99A7A
:10017A00A898F6DFAA9AF4DFA3B3AA98F1DFAA9A9D
:10018A00EFDFAA98A7FDF5CF0895A07FAB2BA5BBFB
:10019A00AA9AE6DFAA98E4DF0895AA93A998A4B3D5
:1001AA00A76FA4BBB5B3BF70A881EFDFA881A295E2
:1001BA00ECDFA99A0C947501AA9AD2DFE3B3AA9844
:1001CA00CFDFE07F0895CCDFF7DFAE2FF5DFA99808
:1001DA00E295EA2B0895AA93C7DFE881F0E0E050A0
:1001EA00FB4FE081A981AE0FD8DF59804880229663
:1001FA000895BADFA2E0D1DFB7DFACE0CEDFB4DF2B
:10020A00A1E0CBDFE0E04E2E5E2E0895AA93EF9395
:10021A00FF93A8816894AA3019F0E894571430F033
:10022A004394E0E0EA93A42DD6DF2EF053949CDFAA
:10023A00A89AA881B2DFFF91EF910C947501BA9345
:10024A00AA931A93A981BA81ED91A983BA831E2F21
:10025A00E03019F0A12FDADFF5CF1881239608953F
:10026A00AA27BB271197F1F70895AA93A998A4B3CF
:10027A00A76FA4BBB5B3BF70A88187DFA99A30C0A6
:10028A00AA93AA98A8987880E881E058E093020592
:10029A00E881E054E0930305E3DFA0E3E6DFE0DF73
:1002AA00A0E3E3DFDDDFA0E3E0DFDADFA0E2DDDF0A
:1002BA00D7DFA8E272DFD4DFA4E06FDFD1DFA5E8E1
:1002CA006CDFCEDFA4B3AF70A4BBA99A7CDFE530A4
:1002DA0011F0E0E005C048DFA6E05FDF8ADFE1E079
:1002EA00219608955ADFA8ECB0E000C0109639F0C4
:1002FA00A89580ED97E00197F1F71197C9F708954E
:00000001FF
