:020000000C945E
:100002004C000C9400000C9400000C9400000C9422
:1000120000000C9400000C9400000C9400000C945E
:1000220000000C9400000C9400000C9400000C944E
:1000320000000C9400000C9400000C9400000C943E
:1000420000000C9400000C9400000C9400000C942E
:1000520000000C9400000C9400000C9400000C941E
:1000620000000C9400000C9400000C9400000C940E
:1000720000000C9400000C9400000C9400000C94FE
:1000820000000C9400000C9400007F0000000300AC
:1000920005008C000000F894EE27ECBBF1E0F5BF00
:1000A200E5BFE0936C008DE0A2E0BB27ED938A955B
:1000B200E9F780E090E1A0E0B1E0ED930197E9F784
:1000C200E0E9F0E085919591009761F0A591B591F5
:1000D20005901590BF01F00105900D920197E1F78F
:1000E200FB01F0CF8BBFEFEFEDBFE0E1EEBFC0E071
:1000F200D5E00C947C00EFEFE4BBE5BBB19914C0F2
:1001020055BAE52DE695E0685E2EA4E6B0E00ED085
:10011200F30131963F01E8E0F0E0E615F70521F43E
:1001220066247724EFE75E2EE9CFFFCF109639F0F1
:10013200A89580EA9FE00197F1F71197C9F7089512
:00000001FF
