:100000000C944C000C9400000C9400000C94000024
:100010000C9400000C9400000C9400000C94000060
:100020000C9400000C9400000C9400000C94000050
:100030000C9400000C9400000C9400000C94000040
:100040000C9400000C9400000C9400000C94000030
:100050000C9400000C9400000C9400000C94000020
:100060000C9400000C9400000C9400000C94000010
:100070000C9400000C9400000C9400000C94000000
:100080000C9400000C9400000C9400000000000090
:10009000040004008C000000F894EE27ECBBF1E0B3
:1000A000F5BFE5BFE0936C008DE0A2E0BB27ED93C8
:1000B0008A95E9F780E090E1A0E0B1E0ED93019747
:1000C000E9F7E0E9F0E085919591009761F0A5915D
:1000D000B59105901590BF01F00105900D92019723
:1000E000E1F7FB01F0CF8BBFEFEFEDBFE0E1EEBF3B
:1000F000C0E0D5E00C94A000F201E130A0E0FA07E6
:1001000031F4770C772011F4E1E07E2E12C0E2305A
:10011000A0E0FA0729F47724E72DE095E5BB0FC0AE
:10012000E330A0E0FA0759F47694772011F4E0E880
:100130007E2EE72DE095E5BBA4EFB1E017D0089542
:10014000EFEFE4BBE7BBE8BBB09903C0E1E0F0E050
:100150002F01B19903C0E2E0F0E02F01B29903C092
:10016000E3E0F0E02F01C8DFEFCFFFCF109639F0CA
:10017000A89580EA9FE00197F1F71197C9F70895D4
:00000001FF
