:060000000C9458000C9462
:1000060000000C9400000C9400000C9400000C946A
:10001600A5000C94CF000C9400000C9400000C94E6
:1000260000000C9400000C9400000C9400000C944A
:1000360000000C9400000C9400000C9400000C943A
:1000460000000C9400000C9400000C9400000C942A
:1000560000000C9400000C9400000C9400000C941A
:1000660000000C9400000C9400000C9400000C940A
:1000760000000C9400000C9400000C9400000C94FA
:1000860000000C940000000000000000C0F9A4B0BD
:10009600999282D880988883C6A1868E060004002D
:1000A6008C001000000592000000F894EE27ECBBCF
:1000B600F1E0F5BFE5BFE0936C008DE0A2E0BB2761
:1000C600ED938A95E9F780E090E1A0E0B1E0ED9349
:1000D6000197E9F7E2EAF0E085919591009761F0E2
:1000E600A591B59105901590BF01F00105900D926F
:1000F6000197E1F7FB01F0CF8BBFEFEFEDBFE0E13A
:10010600EEBFC0E0D5E00C948800EFEFEABBE0EF6D
:10011600E7BBEAEAEABFE0EFE9BF789402D0FECF98
:10012600FFCFE0EEE8BBE52D4BD0E0EDE8BBE42DDC
:1001360047D0E0EBE8BBE72D43D0E0E7E8BBE62D90
:100146003FD008950A921A929A93AA93BA93EA9381
:10015600FA93EFB7EA93992021F4E52D39D05E2E74
:1001660011C0E1E0E91521F4E42D32D04E2E0AC08B
:10017600E1E0E91521F4E72D2BD07E2E03C0E62D14
:1001860027D06E2EE991EFBFF991E991B991A99126
:100196009991199009901895AA93BA93EA93FA93AC
:1001A600EFB7EA93E92DF0E03196A3E0B0E03CD05A
:1001B6009E2EE991EFBFF991E991B991A991189510
:1001C600F0E0E050FB4FE081EBBBA5E0B0E036C0CD
:1001D600F0E03196DF01EAE0F0E018D00895F195FD
:1001E600E195F04008950024112490E1AA0FBB1F69
:1001F600001C111C0E1A1F0A18F40E0E1F1E01C039
:10020600A1609A9599F7FD01D0010895E894B7FF8A
:1002160004C0B195A195B0406894F7FDE0DFE3DF37
:10022600FD010EF4DCDF0895E894F7FF02C0D7DF86
:100236006894EA23FB230EF4D2DF0895109639F072
:10024600A89580ED97E00197F1F71197C9F7089502
:00000001FF
