:040000000C946B00F1
:100004000C949B000C94A8000C94B1000C94BD00BB
:100014000C9400000C9400000C9400000C9400005C
:100024000C9400000C9400000C9400000C9400004C
:100034000C9400000C9400000C9400000C9400003C
:100044000C9400000C9400000C9400000C9400002C
:100054000C9400000C9400000C9400000C9400001C
:100064000C9400000C9400000C9400000C9400000C
:100074000C9400000C9400000C9400000C940000FC
:100084000C9400000C9400001027E80364000A009C
:10009400010000100001100001004F4352314120C3
:1000A4003D203078253032782530327800736275FF
:1000B4006600504F525443203D203078253032782A
:1000C40000706F727463000080C002002005CC00D1
:1000D4000000F894EE27ECBBF1E0F5BFE5BFE09338
:1000E4006C008DE0A2E0BB27ED938A95E9F780E0F0
:1000F40090E1A0E0B1E0ED930197E9F7EEECF0E0D8
:1001040085919591009761F0A591B5910590159011
:10011400BF01F00105900D920197E1F7FB01F0CFCB
:100124008BBFEFEFEDBFE0E1EEBFC0E0D5E00C9494
:10013400F900F0D2EFEFE5BBE0E0EBBDEABDF8D2A9
:10014400FBD209D388E09CD22C962CC0E3D2E0EFFA
:10015400E5BBE7E2EBBDE0E1EABDEED21BC0DAD2DB
:10016400EFE0E5BBEEE4E9BDE0E2E8BDF9D2E9B5D4
:10017400F2D2E8B50FC0CED2E0E0E5BBECE9E09303
:100184007900E0E4E0937800EBD2E0917900E3D2E7
:10019400E0917800FF27662777273BD388E070D269
:1001A4002C96C6D2A1EBB0E0E0D0E0E0EA93A1E067
:1001B400ADD0E0E1F5E0FA93EA93E6EBF0E0FA93F0
:1001C400EA93E5B3C8D284E05BD22896A5ECB0E00C
:1001D400CCD0E991EFBFF991E991B991A9919991A5
:1001E400899179916991F990199009901895EFEF97
:1001F400EABBE0E0EBBBE0E6E7BBE0E0E8BBEFEF47
:10020400E4BBE0E0E5BBEFE0E1BBE0E0E2BBE2B988
:10021400E3B9E0936100E0936200E0936400E0934B
:100224006500E0BFE3BFE2BFE1BFE3EAEFBDEAE19F
:10023400EEBDE0E0EDBDECBDE7BDE6BDECE9EBBD38
:10024400E0E4EABDE0E0E9BDE8BDE0937900E093D5
:100254007800E5BDE4BDE3BDE0938B00E0938A0044
:10026400E0938900E0938800E0938100E0938000AC
:10027400E0938700E0938600E0938500E093840098
:10028400E0938300E0938200E7BFE0937D00EFEF0B
:10029400E0936A00E0E0EABFEFE0E9BFE8BFE0E036
:1002A400EAB9E0939A00E0E8E8B9E0E0E0BDE6B935
:1002B400EDB9E0937400A0E167D07894EFEFE5BB6B
:1002C400E4BBFFCFFFCF1A931A2FEBB3EF70AE2F1F
:1002D400E12FE07FEA2BEBBB8BE18A95F1F7DB9A08
:1002E4008BE18A95F1F7DB988BE18A95F1F775C07C
:1002F400AA93A881E8DFE881E295E883A881E3DF97
:1003040088EC90E00197F1F7219608951A930A93E7
:100314001A2F0A81E12FF0E0E05EFA4FE081E00F4E
:10032400AE2FE6DF502E412E1981088123960895C1
:10033400A2E01FD2ACE0DCDFA1E01BD2E0E04E2E55
:100344005E2E08951A931A2F1A3011F0571438F0AC
:10035400E0E0EA934394A42DD9DF1A30F1F15394E9
:10036400D99AA12FC5DFD99838C033D29D01F9019C
:100374002F5F3F4FE4911E2FE03019F0A12FE2DFF1
:10038400F6CF2ED2249608951A931A2FEAB3E06F6B
:10039400EABBD39AD19AD29ADB98D998DA98712E7B
:1003A400E12FE058E0932205E12FE054E093230588
:1003B400A4E1B0E033D2E1D1E0D1DFD1A0E283DF28
:1003C40080E991E00197F1F7A8E292DFA4E090DFE1
:1003D400A5E88EDFA6E08CDFABDF19910895F7D195
:1003E4009D015E8112960DD23097E1F0D9011496E9
:1003F40008D28F01309759F00230E0E01E0760F018
:10040400F80131978F01D9011496ED93FC93D9012A
:100414001296BAD131975083D901F3D1FF230AF050
:10042400B3D105C0D901EFEFFFEFED93FC93D6D123
:1004340027960895BA93AA932697C9D110E0AC855C
:10044400BD85E0E0F0E0ED93FC93EA89FB89319609
:10045400EA8BFB8B3197E4912E2FE03009F409C12C
:10046400E12FE03031F4253211F411E001C092D1D2
:10047400FFC0E130A1F4253211F48CD1F8C012E0B0
:1004840040E000E02D3211F401E0F2C02B3211F40F
:100494004BE2EEC0203211F440E2EAC002C0E23086
:1004A40039F450E013E0203311F40068E1C003C0D4
:1004B400E33009F0DDC0203310F02A3308F007C020
:1004C400AAE05A9F502DE22FE0535E0FD1C0E22FD5
:1004D400E33639F466D1E889F989A481AA9367D10E
:1004E400C6C0E33729F45DD168D1FBD01E2F07C005
:1004F400E03749F456D161D100D11E2F0860026063
:100504000F7730E038C0E43611F0E93611F40460B6
:1005140002C0E53731F4ECE8F0E0EE83FF8315E048
:100524000CC0E83511F4086003C0E83709F09FC037
:10053400E6E9F0E0EE83FF8314E002FF15C031D159
:10054400A889B9891496ED91FD91EA87FB87AB855B
:10055400AA2322F452D1EA87FB874DE2403011F0FE
:100564001F5F01C00B7F07C01CD1A889B9891496ED
:1005740048D1EA87FB8700FD10C0151770F407FF08
:1005840008C002FF04C00B7F242F115001C020E3D8
:1005940001C020E2FFD05150F0CF312F01FF16C02F
:1005A400303099F003FF06C0EE81FF812591EE8380
:1005B400FF8305C0AE81BF812D91AE83BF83EAD096
:1005C400503009F051503150EBCF48C020E3EE8158
:1005D400FF811BD1E887F987EE81FF813296EE8394
:1005E400FF83E885F985AA85BB85AE17BF0750F060
:1005F4002F5FA885B985EA85FB85EA1BFB0BEA8793
:10060400FB87EFCF2A3328F003FF02C0295F01C024
:10061400295D04FD19C0213320F4A885B9851197FB
:1006240009F409C0531710F000FF01C011C020E203
:1006340007FF0AC020E3006102FF06C00B7F4A9354
:10064400B6D0503009F05150A5D0503009F0515077
:100654003150A885B985129708F0B8CF00FF07C0BC
:10066400503029F05150E0E2EA93A1D0F9CF10E0E4
:10067400ECCEAC85BD85ED91FD91B0D06496089526
:10068400FF92F82E2697A3D0FE01AFD0468557855A
:10069400042E052A19F4EFEFFFEF1FC0DE011896B0
:1006A400A8D08D0148875987E0E0EA87EB87DE010F
:1006B4001C969FD0ED91FD91FA93EA931A930A93B5
:1006C400E1EFF1E0FA93EA93DE011C96B3DE9F01B9
:1006D400A885B985E0E0EC93F90180D02C96FF90D1
:1006E4000895BA93AA93A991B991EE27FF276D9122
:1006F400662311F03196FBCF0895BA93AA93AA27E3
:10070400BB27E991F9910590002011F01196FBCFD8
:10071400FD0108950A921A92FA926A937A938A933F
:100724009A93AA93BA93EA93FA93EFB7EA93089544
:10073400E0E0EA93A0E0EACDE0E0F5E0FA93EA93A2
:10074400EEE9F0E0FA93EA93EBB5FF276627772703
:1007540060D0EAB50895FF27662777275AD0089511
:10076400E0E0F5E0FA93EA93EEE9F0E0FA93EA9335
:100774000895BEDDA3E0B0E051C0A0E3A4DD80E9AC
:1007840091E00197F1F70895ED91FD913196FE9373
:10079400EE9308952A93AD85BE85EF85F889099572
:1007A4000895E889F9893497E88BF98B0895AD8524
:1007B400BE85EF85F88909950895A889B9891496A5
:1007C400ED91FD91EE83FF83AE81BF8108955A932D
:1007D4004A933A932A931A930A9308955D814C811C
:1007E4003B812A811981088108950024EF0DF01DB1
:1007F40008950024AF0DB01D0895F195E195F040E2
:100804000895ED91FC91119708950590F491E02DD0
:1008140008957A936A93FA93EA930895109639F0B7
:10082400A89580EA9FE00197F1F71197C9F7089519
:00000001FF
