:080000000C9460000C94000058
:100008000C9400000C9400000C9400000C94000068
:100018000C9400000C9400000C9400000C94000058
:100028000C9400000C9400000C9400000C94000048
:100038000C9400000C9400000C9400000C94000038
:100048000C9400000C9400000C9400000C94000028
:100058000C9400000C9400000C9400000C94000018
:100068000C9400000C9400000C9400000C94000008
:100078000C9400000C9400000C9400000C940000F8
:100088000C9400001027E80364000A000100001027
:1000980000011000010043757272656E742056618C
:1000A8006C756500444154413D253464000080C0AE
:1000B80002001005B6000000F894EE27ECBBF1E052
:1000C800F5BFE5BFE0936C008DE0A2E0BB27ED93A0
:1000D8008A95E9F780E090E1A0E0B1E0ED9301971F
:1000E800E9F7E8EBF0E085919591009761F0A5912B
:1000F800B59105901590BF01F00105900D920197FB
:10010800E1F7FB01F0CF8BBFEFEFEDBFE0E1EEBF12
:10011800C0E0D5E00C949000E0E0EA93A0E053D072
:10012800AEE9B0E086D044245524E4E6F0E0E415D6
:10013800F505E4F0E0E0F5E0FA93EA93ECEAF0E0A4
:10014800FA93EA93F20160D26CD284E0D6D1289671
:10015800E0E0EA93A1E037D0A0E0B5E05BD0A4EFFF
:10016800B1E064D2F20131962F01DFCFD5CFFFCFB6
:10017800FFE0FA95F1F70895AAB3AF70AABBD99A30
:10018800D898F6DFDA9AF4DFA9B3DA98F1DFDA9AC9
:10019800EFDFDA98A7FDF5CF0895A07FAB2BABBBB7
:1001A800DA9AE6DFDA98E4DF0895AA93D998AAB331
:1001B800A76FAABBBBB3BF70A881EFDFA881A295C8
:1001C800ECDFD99A25C0AA93D7DFE881F0E0E05F99
:1001D800FA4FE081A981AE0FE8DF79806880229626
:1001E8000895AA93EF93FF93A8816894AA3019F011
:1001F800E894791430F06394E0E0EA93A62DE3DF05
:100208002EF07394B9DFD89AA881CFDFFF91EF91D0
:1002180021960895BA93AA931A93A981BA81ED9168
:10022800A983BA831E2FE03019F0A12FDADFF5CFAA
:1002380010C0BA93AA931A93E981FA813196E98397
:10024800FA833197E4911E2FE03019F0A12FC9DF0E
:10025800F3CF188123960895BDD19D015E81129632
:10026800D8D13097E1F0D9011496D3D18F013097C6
:1002780059F00230E0E01E0760F0F80131978F0175
:10028800D9011496ED93FC93D901129680D1319738
:100298005083D901BED1FF230AF079D105C0D90115
:1002A800EFEFFFEFED93FC939CD127960895BA9357
:1002B800AA9326978FD110E0AC85BD85E0E0F0E0E9
:1002C800ED93FC93EA89FB893196EA8BFB8B319796
:1002D800E4912E2FE03009F409C1E12FE03031F428
:1002E800253211F411E001C058D1FFC0E130A1F46A
:1002F800253211F452D1F8C012E040E000E02D326E
:1003080011F401E0F2C02B3211F44BE2EEC02032BE
:1003180011F440E2EAC002C0E23039F450E013E0E0
:10032800203311F40068E1C003C0E33009F0DDC0F8
:10033800203310F02A3308F007C0AAE05A9F502D46
:10034800E22FE0535E0FD1C0E22FE33639F42CD10F
:10035800E889F989A481AA932DD1C6C0E33729F485
:1003680023D12ED1FBD01E2F07C0E03749F41CD172
:1003780027D100D11E2F086002600F7730E038C007
:10038800E43611F0E93611F4046002C0E53731F4BF
:10039800ECE8F0E0EE83FF8315E00CC0E83511F4DB
:1003A800086003C0E83709F09FC0E6E9F0E0EE8393
:1003B800FF8314E002FF15C0F7D0A889B989149605
:1003C800ED91FD91EA87FB87AB85AA2322F418D12A
:1003D800EA87FB874DE2403011F01F5F01C00B7FB9
:1003E80007C0E2D0A889B989149613D1EA87FB8798
:1003F80000FD10C0151770F407FF08C002FF04C005
:100408000B7F242F115001C020E301C020E2C5D08A
:100418005150F0CF312F01FF16C0303099F003FF53
:1004280006C0EE81FF812591EE83FF8305C0AE8172
:10043800BF812D91AE83BF83B0D0503009F05150A9
:100448003150EBCF48C020E3EE81FF81E6D0E8874A
:10045800F987EE81FF813296EE83FF83E885F9857F
:10046800AA85BB85AE17BF0750F02F5FA885B98551
:10047800EA85FB85EA1BFB0BEA87FB87EFCF2A336C
:1004880028F003FF02C0295F01C0295D04FD19C0DF
:10049800213320F4A885B985119709F409C05317A9
:1004A80010F000FF01C011C020E207FF0AC020E3DE
:1004B800006102FF06C00B7F4A937CD0503009F0E0
:1004C80051506BD0503009F051503150A885B98542
:1004D800129708F0B8CF00FF07C0503029F05150EC
:1004E800E0E2EA9367D0F9CF10E0ECCEAC85BD85A9
:1004F800ED91FD9176D064960895FF92F82E269797
:1005080069D0FE0175D046855785042E052A19F451
:10051800EFEFFFEF1FC0DE0118966ED08D01488700
:100528005987E0E0EA87EB87DE011C9665D0ED91FC
:10053800FD91FA93EA931A930A93E0E3F1E0FA93B0
:10054800EA93DE011C96B3DE9F01A885B985E0E039
:10055800EC93F90146D02C96FF900895BA93AA938C
:10056800A991B991EE27FF276D91662311F0319675
:10057800FBCF0895BA93AA93AA27BB27E991F991CB
:100588000590002011F01196FBCFFD010895ED9123
:10059800FD913196FE93EE9308952A93AD85BE851D
:1005A800EF85F88909950895E889F9893497E88BE2
:1005B800F98B0895AD85BE85EF85F889099508956D
:1005C800A889B9891496ED91FD91EE83FF83AE81D8
:1005D800BF8108955A934A933A932A931A930A9398
:1005E80008955D814C813B812A8119810881089594
:1005F8000024EF0DF01D08950024AF0DB01D0895DF
:10060800F195E195F04008956F2F660F660B762FF0
:100618000895ED91FC91119708950590F491E02DBE
:1006280008957A936A93FA93EA930895109639F0A5
:10063800A89580EA9FE00197F1F71197C9F7089507
:00000001FF
