:020000000C945E
:1000020056000C9400000C9400000C9400000C9418
:1000120000000C9499000C9400000C9400000C94C5
:1000220000000C9400000C9400000C9400000C944E
:1000320000000C9400000C9400000C9400000C943E
:1000420000000C9400000C9400000C9400000C942E
:1000520000000C9400000C9400000C9400000C941E
:1000620000000C9400000C9400000C9400000C940E
:1000720000000C9400000C9400000C9400000C94FE
:1000820000000C9400000C9400000000C09FA4B07B
:10009200999282D880988883C6A1868E0100050035
:1000A2008C00100000058E000000F894EE27ECBBD7
:1000B200F1E0F5BFE5BFE0936C008DE0A2E0BB2765
:1000C200ED938A95E9F780E090E1A0E0B1E0ED934D
:1000D2000197E9F7EEE9F0E085919591009761F0DB
:1000E200A591B59105901590BF01F00105900D9273
:1000F2000197E1F7FB01F0CF8BBFEFEFEDBFE0E13E
:10010200EEBFC0E0D5E00C948600EFEFEABBE0EF73
:10011200E7BBE2E0EABFE0E1E9BF7894E0EEE8BBEA
:10012200E52DF0E0E050FB4FE081EBBBF9CFFFCFD4
:100132000A921A929A93AA93BA93EA93FA93EFB70E
:10014200EA93E52DF0E03196DF01EAE0F0E022D01B
:100152005E2EE991EFBFF991E991B991A991999137
:10016200199009901895F195E195F04008950024B1
:10017200112490E1AA0FBB1F001C111C0E1A1F0AAA
:1001820018F40E0E1F1E01C0A1609A9599F7FD0189
:10019200D0010895E894B7FF04C0B195A195B0408D
:1001A2006894F7FDE0DFE3DFFD010EF4DCDF089584
:00000001FF
