:040000000C949800C4
:100004000C9400000C9400000C9400000C9400006C
:100014000C9400000C9400000C9400000C9400005C
:100024000C9400000C9400000C9400000C9400004C
:100034000C9400000C9400000C9400000C9400003C
:100044000C9400000C9400000C9400000C9400002C
:100054000C9400000C9400000C9400000C9400001C
:100064000C9400000C9400000C9400000C9400000C
:100074000C9400000C9400000C9400000C940000FC
:100084000C9400000C9400001027E80364000A009C
:1000940001000010000110000100FE000000C0F982
:1000A400A4B0999282D88098464E442C204C434464
:1000B400207465737400732F7730203D2030786688
:1000C4006500732F7731203D203078666400732FEC
:1000D4007732203D203078666200732F7733203DDD
:1000E400203078663700732F7734203D20307865D0
:1000F4006600732F7735203D203078646600732FB7
:100104007736203D203078626600732F7737203DA4
:1001140020307837660080C0030007009E000A0084
:100124000005A20002000A051A010000F894EE2757
:10013400ECBBF1E0F5BFE5BFE0936C008DE0A2E01D
:10014400BB27ED938A95E9F780E090E1A0E0B1E068
:10015400ED930197E9F7ECE1F1E085919591009732
:1001640061F0A591B59105901590BF01F00105903E
:100174000D920197E1F7FB01F0CF8BBFEFEFEDBFDD
:10018400E0E1EEBFC0E0D5E00C94C800EFEFEABBBD
:10019400E4BBE1BBE2B9A0E10AD1E0E0EA93A0E06C
:1001A400C2D0ECEAF0E0A5D250B2E0B3EF3F21F0C8
:1001B400A1E0B0E0E3D2F9CFE52DF0E0EE3FA0E01E
:1001C400FA0731F49CD2EAEBF0E093D2442446C01F
:1001D400ED3FA0E0FA0731F492D2E6ECF0E089D2E8
:1001E400E1E03BC0EB3FA0E0FA0731F488D2E2ED56
:1001F400F0E07FD2E2E031C0E73FA0E0FA0731F45B
:100204007ED2EEEDF0E075D2E3E027C0EF3EA0E051
:10021400FA0731F474D2EAEEF0E06BD2E4E01DC0E8
:10022400EF3DA0E0FA0731F46AD2E6EFF0E061D2E4
:10023400E5E013C0EF3BA0E0FA0731F460D2E2E05E
:10024400F1E057D2E6E009C0EF37A0E0FA0731F455
:1002540056D2EEE0F1E04DD2E7E04E2EE1B1EF3FB1
:1002640029F573B888249924E5E0F0E0E815F90548
:1002740084F4F401A42DB0E0EA17FB0719F4E0912B
:10028400010502C0E0910905E5BBF40131964F0177
:10029400EBCFE6E0E41511F4E3EAF1E0E72DEE0F2D
:1002A400E1607E2EA1E0B0E069D2D8CF7DCFFFCF50
:1002B400FFE0FA95F1F70895AAB3AF70AABBD99AF3
:1002C400D898F6DFDA9AF4DFA9B3DA98F1DFDA9A8C
:1002D400EFDFDA98A7FDF5CF0895A07FAB2BABBB7A
:1002E400DA9AE6DFDA98E4DF0895AA93D998AAB3F4
:1002F400A76FAABBBBB3BF70A881EFDFA881A2958B
:10030400ECDFD99A0C940902DA9AD2DFE9B3DA98CD
:10031400CFDFE07F0895CCDFF7DFAE2FF5DFD9988C
:10032400E295EA2B0895AA93C7DFE881F0E0E65F3F
:10033400FA4FE081A981AE0FD8DF6980B880229698
:100344000895BADFA2E0D1DFB7DFACE0CEDFB4DFDF
:10035400A1E0CBDFE0E0BE2E6E2E0895AA93EF93CA
:10036400FF93A8816894AA3019F0E8946A1430F0D5
:10037400B394E0E0EA93AB2DD6DF2EF063949CDFD8
:10038400D89AA881B2DFFF91EF910C940902AA27B1
:10039400BB271197F1F70895AA93D998AAB3A76F29
:1003A400AABBBBB3BF70A88198DFD99A30C0AA9307
:1003B400DA98D898A880E881E058E0930C05E881A1
:1003C400E054E0930D05E3DFA0E3E6DFE0DFA0E324
:1003D400E3DFDDDFA0E3E0DFDADFA0E2DDDFD7DFAC
:1003E400A8E283DFD4DFA4E080DFD1DFA5E87DDFEE
:1003F400CEDFAAB3AF70AABBD99A8DDFE53011F076
:10040400E0E005C059DFA6E070DF9BDFE1E0219664
:100414000895BA93AA93269793D110E0AC85BD852D
:10042400E0E0F0E0ED93FC93EA89FB893196EA8BF6
:10043400FB8B3197E4912E2FE03009F409C1E12FB1
:10044400E03031F4253211F411E001C05CD1FFC079
:10045400E130A1F4253211F456D1F8C012E040E0A5
:1004640000E02D3211F401E0F2C02B3211F44BE222
:10047400EEC0203211F440E2EAC002C0E23039F4A6
:1004840050E013E0203311F40068E1C003C0E3300E
:1004940009F0DDC0203310F02A3308F007C0AAE0C9
:1004A4005A9F502DE22FE0535E0FD1C0E22FE33666
:1004B40039F430D1E889F989A481AA9331D1C6C02D
:1004C400E33729F427D132D1FBD01E2F07C0E03700
:1004D40049F420D12BD100D11E2F086002600F7780
:1004E40030E038C0E43611F0E93611F4046002C09B
:1004F400E53731F4ECE8F0E0EE83FF8315E00CC05F
:10050400E83511F4086003C0E83709F09FC0E6E954
:10051400F0E0EE83FF8314E002FF15C0FBD0A8894E
:10052400B9891496ED91FD91EA87FB87AB85AA23DF
:1005340022F418D1EA87FB874DE2403011F01F5FA7
:1005440001C00B7F07C0E6D0A889B98914960ED1E3
:10055400EA87FB8700FD10C0151770F407FF08C079
:1005640002FF04C00B7F242F115001C020E301C0FF
:1005740020E2C9D05150F0CF312F01FF16C03030E6
:1005840099F003FF06C0EE81FF812591EE83FF837E
:1005940005C0AE81BF812D91AE83BF83B4D05030EE
:1005A40009F051503150EBCF48C020E3EE81FF8178
:1005B400E1D0E887F987EE81FF813296EE83FF83ED
:1005C400E885F985AA85BB85AE17BF0750F02F5F74
:1005D400A885B985EA85FB85EA1BFB0BEA87FB87BF
:1005E400EFCF2A3328F003FF02C0295F01C0295D41
:1005F40004FD19C0213320F4A885B985119709F4A5
:1006040009C0531710F000FF01C011C020E207FF1A
:100614000AC020E3006102FF06C00B7F4A9380D02A
:10062400503009F051506FD0503009F051503150D2
:10063400A885B985129708F0B8CF00FF07C05030DD
:1006440029F05150E0E2EA936BD0F9CF10E0ECCE00
:10065400AC85BD85ED91FD917AD06496089572D0F4
:100664008D013C81A32F7ADED801ED91FD91319665
:10067400FE93EE936ED025960895FF92F82E26975A
:100684001A930A93DE01149669D08D01E0E0EC839D
:10069400ED83EE83EF83DE01189660D0ED91FD913A
:1006A400FA93EA931A930A93E1E3F3E0FA93EA9351
:1006B400DE011896AEDE198108812896FF90089510
:1006C400BA93AA93A991B991EE27FF276D91662356
:1006D40011F03196FBCF0895BA93AA93AA27BB27AA
:1006E400E991F9910590002011F01196FBCFFD01DD
:1006F4000895FA93EA9380E0C0DF22960895E0E03B
:10070400EA93A1E010CE2A93AD85BE85EF85F889E2
:1007140009950895E889F9893497E88BF98B089548
:10072400AD85BE85EF85F88909950895A889B989AD
:100734001496ED91FD91EE83FF83AE81BF81089500
:100744005A934A933A932A931A930A9308955D818C
:100754004C813B812A811981088108950024AF0DC1
:10076400B01D0895F195E195F0400895ED91FC9147
:10077400119708950590F491E02D0895109639F09D
:10078400A89580EA9FE00197F1F71197C9F70895BA
:00000001FF
