:100000000C944B000C9400000C9400000C94000025
:100010000C9400000C9487000C9400000C940000D9
:100020000C9400000C9400000C9400000C94000050
:100030000C9400000C9400000C9400000C94000040
:100040000C9400000C9400000C9400000C94000030
:100050000C9400000C9400000C9400000C94000020
:100060000C9400000C9400000C9400000C94000010
:100070000C9400000C9400000C9400000C94000000
:100080000C9400000C9400000C940000FE00010091
:1000900005008C000000F894EE27ECBBF1E0F5BF02
:1000A000E5BFE0936C008DE0A2E0BB27ED938A955D
:1000B000E9F780E090E1A0E0B1E0ED930197E9F786
:1000C000EEE8F0E085919591009761F0A591B591EA
:1000D00005901590BF01F00105900D920197E1F791
:1000E000FB01F0CF8BBFEFEFEDBFE0E1EEBFC0E073
:1000F000D5E00C947B00EFEFEABBE2E0E2B955BA41
:10010000E0E0EABFE0E1E9BF7894FFCFFFCF0A92D9
:100110001A92FA926A937A938A939A93AA93BA93C9
:10012000EA93FA93EFB7EA93550CE1E05E2AEFEF1A
:10013000E51511F4EEEF5E2E5BBAA4E6B0E00ED04A
:10014000E991EFBFF991E991B991A99199918991BB
:1001500079916991F990199009901895109639F054
:10016000A89580ED97E00197F1F71197C9F70895E9
:00000001FF
