:040000000C946500F7
:100004000C9400000C9400000C9400000C9400006C
:100014000C9400000C9400000C9400000C9400005C
:100024000C9400000C9400000C9400000C9400004C
:100034000C9400000C9400000C9400000C9400003C
:100044000C9400000C9400000C9400000C9400002C
:100054000C9400000C9400000C9400000C9400001C
:100064000C9400000C9400000C9400000C9400000C
:100074000C9400000C9400000C9400000C940000FC
:100084000C9400000C9400001027E80364000A009C
:10009400010000100001100001000000437572729D
:1000A400656E742056616C75650044415441203D71
:1000B40020253464000080C0020004009E00020079
:1000C4001005BA000000F894EE27ECBBF1E0F5BF90
:1000D400E5BFE0936C008DE0A2E0BB27ED938A9529
:1000E400E9F780E090E1A0E0B1E0ED930197E9F752
:1000F400ECEBF0E085919591009761F0A591B591B5
:1001040005901590BF01F00105900D920197E1F75C
:10011400FB01F0CF8BBFEFEFEDBFE0E1EEBFC0E03E
:10012400D5E00C949500A0E14FD2E0E0EA93A0E082
:10013400E5D1A0EAB0E025D244245524E8EEF3E06A
:10014400E415F505E4F0E0E0F5E0FA93EA93EEEA6D
:10015400F0E0FA93EA93F201BFD2CBD284E062D109
:100164002896E0E0EA93A1E0C9D1A0E0B5E0FAD195
:10017400A4E6B0E0C3D2F20131962F01DFCFD5CF90
:10018400FFCF90D29D015E811296ABD23097E1F001
:10019400D9011496A6D28F01309759F00230E0E0CD
:1001A4001E0760F0F80131978F01D9011496ED9381
:1001B400FC93D901129653D231975083D90191D22D
:1001C400FF230AF04CD205C0D901EFEFFFEFED9306
:1001D400FC936FD227960895BA93AA93269762D276
:1001E40010E0AC85BD85E0E0F0E0ED93FC93EA8996
:1001F400FB893196EA8BFB8B3197E4912E2FE0300B
:1002040009F409C1E12FE03031F4253211F411E091
:1002140001C02BD2FFC0E130A1F4253211F425D264
:10022400F8C012E040E000E02D3211F401E0F2C029
:100234002B3211F44BE2EEC0203211F440E2EAC05A
:1002440002C0E23039F450E013E0203311F40068C6
:10025400E1C003C0E33009F0DDC0203310F02A33DD
:1002640008F007C0AAE05A9F502DE22FE0535E0F1A
:10027400D1C0E22FE33639F4FFD1E889F989A481AA
:10028400AA9300D2C6C0E33729F4F6D101D2CED165
:100294001E2F07C0E03749F4EFD1FAD1D3D11E2F76
:1002A400086002600F7730E038C0E43611F0E936B8
:1002B40011F4046002C0E53731F4ECE8F0E0EE83B9
:1002C400FF8315E00CC0E83511F4086003C0E8377B
:1002D40009F09FC0E6E9F0E0EE83FF8314E002FF3B
:1002E40015C0CAD1A889B9891496ED91FD91EA8700
:1002F400FB87AB85AA2322F4EBD1EA87FB874DE287
:10030400403011F01F5F01C00B7F07C0B5D1A88931
:10031400B9891496E6D1EA87FB8700FD10C015174A
:1003240070F407FF08C002FF04C00B7F242F115094
:1003340001C020E301C020E298D15150F0CF312F09
:1003440001FF16C0303099F003FF06C0EE81FF8133
:100354002591EE83FF8305C0AE81BF812D91AE83CD
:10036400BF8383D1503009F051503150EBCF48C096
:1003740020E3EE81FF81B9D1E887F987EE81FF811F
:100384003296EE83FF83E885F985AA85BB85AE178F
:10039400BF0750F02F5FA885B985EA85FB85EA1B66
:1003A400FB0BEA87FB87EFCF2A3328F003FF02C059
:1003B400295F01C0295D04FD19C0213320F4A885FB
:1003C400B985119709F409C0531710F000FF01C053
:1003D40011C020E207FF0AC020E3006102FF06C04B
:1003E4000B7F4A934FD1503009F051503ED15030D9
:1003F40009F051503150A885B985129708F0B8CF4B
:1004040000FF07C0503029F05150E0E2EA933AD19E
:10041400F9CF10E0ECCEAC85BD85ED91FD9149D1CD
:1004240064960895FF92F82E26973CD1FE0148D198
:1004340046855785042E052A19F4EFEFFFEF1FC0F8
:10044400DE01189641D18D0148875987E0E0EA879B
:10045400EB87DE011C9638D1ED91FD91FA93EA9376
:100464001A930A93E3ECF0E0FA93EA93DE011C9604
:10047400B3DE9F01A885B985E0E0EC93F90119D1B9
:100484002C96FF900895FFE0FA95F1F70895A4B330
:10049400AF70A4BBA99AA898F6DFAA9AF4DFA3B315
:1004A400AA98F1DFAA9AEFDFAA98A7FDF5CF0895DD
:1004B400A07FAB2BA5BBAA9AE6DFAA98E4DF089538
:1004C400AA93A998A4B3A76FA4BBB5B3BF70A8811E
:1004D400EFDFA881A295ECDFA99A0C941603AA9ADF
:1004E400D2DFE3B3AA98CFDFE07F0895CCDFF7DF54
:1004F400AE2FF5DFA998E295EA2B0895AA93C7DFFA
:10050400E881F0E0E05FFA4FE081A981AE0FD8DF27
:100514007980688022960895BADFA2E0D1DFB7DF40
:10052400ACE0CEDFB4DFA1E0CBDFE0E06E2E7E2EC8
:100534000895AA93EF93FF93A8816894AA3019F0C1
:10054400E894791430F06394E0E0EA93A62DD6DFC2
:100554002EF073949CDFA89AA881B2DFFF91EF91EB
:100564000C941603BA93AA931A93A981BA81ED91B4
:10057400A983BA831E2FE03019F0A12FDADFF5CF5B
:1005840010C0BA93AA931A93E981FA813196E98348
:10059400FA833197E4911E2FE03019F0A12FC9DFBF
:1005A400F3CF188123960895AA27BB271197F1F753
:1005B4000895AA93A998A4B3A76FA4BBB5B3BF70B9
:1005C400A88176DFA99A30C0AA93AA98A89898809F
:1005D400E881E058E0931205E881E054E0931305C4
:1005E400E3DFA0E3E6DFE0DFA0E3E3DFDDDFA0E3BA
:1005F400E0DFDADFA0E2DDDFD7DFA8E261DFD4DF0E
:10060400A4E05EDFD1DFA5E85BDFCEDFA4B3AF708B
:10061400A4BBA99A6BDFE53011F0E0E005C037DF39
:10062400A6E04EDF79DFE1E021960895BA93AA931C
:10063400A991B991EE27FF276D91662311F03196A8
:10064400FBCF0895BA93AA93AA27BB27E991F991FE
:100654000590002011F01196FBCFFD010895ED9156
:10066400FD913196FE93EE9308952A93AD85BE8550
:10067400EF85F88909950895E889F9893497E88B15
:10068400F98B0895AD85BE85EF85F88909950895A0
:10069400A889B9891496ED91FD91EE83FF83AE810B
:1006A400BF8108955A934A933A932A931A930A93CB
:1006B40008955D814C813B812A81198108810895C7
:1006C4000024EF0DF01D08950024AF0DB01D089512
:1006D400F195E195F04008956F2F660F660B762F24
:1006E4000895ED91FC91119708950590F491E02DF2
:1006F40008957A936A93FA93EA930895109639F0D9
:10070400A89580ED97E00197F1F71197C9F708953F
:00000001FF
