:060000000C944F000C946B
:1000060000000C9400000C9400000C9400000C946A
:1000160000000C9400000C9400000C9400000C945A
:1000260000000C9400000C9400000C9400000C944A
:1000360000000C9400000C9400000C9400000C943A
:1000460000000C9400000C9400000C9400000C942A
:1000560000000C9400000C9400000C9400000C941A
:1000660000000C9400000C9400000C9400000C940A
:1000760000000C9400000C9400000C9400000C94FA
:1000860000000C9400001027E80364000A00010039
:100096000010000110000100F894EE27ECBBF1E01F
:1000A600F5BFE5BFE0936C008DE0A2E0BB27ED93C2
:1000B6008A95E9F780E090E1A0E0B1E0ED93019741
:1000C600E9F78BBFEFEFEDBFE0E1EEBFC0E0D5E0B3
:1000D6000C946D00EFEFEABBEFEF04D0E0E002D046
:1000E600FBCFFFCFEBBBA8EEB3E000C0109639F014
:1000F600A89580EA9FE00197F1F71197C9F708954F
:00000001FF
