:0C0000000C944F000C9400000C940000C5
:10000C000C9400000C9400000C9400000C94000064
:10001C000C9400000C9400000C9400000C94000054
:10002C000C9400000C9400000C9400000C94000044
:10003C000C9400000C9400000C9400000C94000034
:10004C000C9400000C9400000C9400000C94000024
:10005C000C9400000C9400000C9400000C94000014
:10006C000C9400000C9400000C9400000C94000004
:10007C000C9400000C9400000C9400000C940000F4
:10008C00C0F9A4B0999282D880980A0000058C001F
:10009C000000F894EE27ECBBF1E0F5BFE5BFE09370
:1000AC006C008DE0A2E0BB27ED938A95E9F780E028
:1000BC0090E1A0E0B1E0ED930197E9F7E6E9F0E01B
:1000CC0085919591009761F0A591B591059015904A
:1000DC00BF01F00105900D920197E1F7FB01F0CF04
:1000EC008BBFEFEFEDBFE0E1EEBFC0E0D5E00C94CD
:1000FC007F00E0E0EBBBEFEFEABBE0E0E8BBEFEF4B
:10010C00E7BB00E010E00031E7E21E0744F5D80140
:10011C00E8EEF3E04FD0DF01E4E6F0E022D0C19A44
:10012C00C29826D0E4E6F0E045D0DF01EAE0F0E04A
:10013C0018D0C198C29A1CD0EAE0F0E03BD0A0E005
:10014C00B5E0AE0FBF1FEC91EBBBC098C19AC29A41
:10015C00C39AA2E0B0E04AD00F5F1F4FD4CFD1CFEB
:10016C00FFCF23D0E050FB4FE081EBBBC09A08954A
:10017C00C39AA2E3B0E03AD0D8010895F195E19585
:10018C00F04008950024112490E1AA0FBB1F001C1D
:10019C00111C0E1A1F0A18F40E0E1F1E01C0A160AE
:1001AC009A9599F7FD01D001089512D0EBDF0EF46A
:1001BC00E5DF0895E894B7FF04C0B195A195B04070
:1001CC006894F7FDDBDFDEDFFD010EF4D7DF089569
:1001DC00E894F7FF02C0D2DF6894B7FF06C0B19570
:1001EC00A195B04000F8039400FA0895109639F0E8
:1001FC00A89580EA9FE00197F1F71197C9F7089548
:00000001FF
