:0A0000000C9460000C9400000C94B6
:10000A0000000C9400000C9400000C9400000C9466
:10001A0000000C9400000C9400000C9400000C9456
:10002A0000000C9400000C9400000C9400000C9446
:10003A0000000C9400000C9400000C9400000C9436
:10004A0000000C9400000C9400000C9400000C9426
:10005A0000000C9400000C9400000C9400000C9416
:10006A0000000C9400000C9400000C9400000C9406
:10007A0000000C9400000C9400000C9400000C94F6
:10008A00000001091515090101011D0B0B1D010EC7
:10009A000A0E091D091515091D091027E803640030
:1000AA000A000100001000011000010080C00200D7
:1000BA000005B6000000F894EE27ECBBF1E0F5BFAE
:1000CA00E5BFE0936C008DE0A2E0BB27ED938A9533
:1000DA00E9F780E090E1A0E0B1E0ED930197E9F75C
:1000EA00E8EBF0E085919591009761F0A591B591C3
:1000FA0005901590BF01F00105900D920197E1F767
:10010A00FB01F0CF8BBFEFEFEDBFE0E1EEBFC0E048
:10011A00D5E00C94A600EED03A2F4E815F81E32FF2
:10012A00E0640E2F10E0183148F40A930395FA019F
:10013A004F5F5F4FA49150D01F5FF5CFE2D0289652
:10014A000895EFEFE4BBE5BBA0E1A2D0ECE8F0E054
:10015A00FA93EA93A0E0DFDFE0E0EA93A0E054D06C
:10016A00A0E06DD0E1E0EA93A0E04ED0A1E067D034
:10017A00E2E0EA93A0E048D0A2E061D0FFCFFFCF4F
:10018A00FFE0FA95F1F70895A4B3AF70A4BBA99A5A
:10019A00A898F6DFAA9AF4DFA3B3AA98F1DFAA9A7D
:1001AA00EFDFAA98A7FDF5CF0895A07FAB2BA5BBDB
:1001BA00AA9AE6DFAA98E4DF0895AA93A998A4B3B5
:1001CA00A76FA4BBB5B3BF70A881EFDFA881A295C2
:1001DA00ECDFA99A0C947D01AA93D6DFA981EDDF01
:1001EA00D3DFA89AA881E9DF1BC0AA9AC9DFE3B3C3
:1001FA00AA98C6DFE07F0895C3DFF7DFAE2FF5DFE9
:10020A00A998E295EA2B0895AA93BEDFE881F0E067
:10021A00E050FB4FE081A981AE0FCFDF59804880C3
:10022A0022960895B1DFA2E0C8DFAEDFACE0C5DFF9
:10023A00ABDFA1E0C2DFE0E04E2E5E2E0895AA9366
:10024A00EF93FF93A8816894AA3019F0E8945714A1
:10025A0030F04394E0E0EA93A42DD6DF2EF05394D5
:10026A0093DFA89AA881A9DFFF91EF910C947D01F1
:10027A00AA27BB271197F1F70895AA93A998A4B3BF
:10028A00A76FA4BBB5B3BF70A8818FDFA99A30C08E
:10029A00AA93AA98A8987880E881E058E093020582
:1002AA00E881E054E0930305E3DFA0E3E6DFE0DF63
:1002BA00A0E3E3DFDDDFA0E3E0DFDADFA0E2DDDFFA
:1002CA00D7DFA8E27ADFD4DFA4E077DFD1DFA5E8C1
:1002DA0074DFCEDFA4B3AF70A4BBA99A8DDFE5307B
:1002EA0011F0E0E005C050DFA6E067DF9BDFE1E048
:1002FA00219608955A934A933A932A931A930A9302
:10030A0008955D814C813B812A8119810881089574
:00000001FF
