:020000000C945E
:1000020046000C9464000C9468000C9400000C945C
:1000120000000C9400000C9400000C9400000C945E
:1000220000000C9400000C9400000C9400000C944E
:1000320000000C9400000C9400000C9400000C943E
:1000420000000C9400000C9400000C9400000C942E
:1000520000000C9400000C9400000C9400000C941E
:1000620000000C9400000C9400000C9400000C940E
:1000720000000C9400000C9400000C9400000C94FE
:1000820000000C9400000C940000F894EE27ECBBE6
:10009200F1E0F5BFE5BFE0936C008DE0A2E0BB2785
:1000A200ED938A95E9F780E090E1A0E0B1E0ED936D
:1000B2000197E9F78BBFEFEFEDBFE0E1EEBFC0E0E4
:1000C200D5E00C94880032D0E0EF3ED007C02ED0AD
:1000D200EFE33AD03FD0E3E03DD0E0E0EBBBA8EE67
:1000E200B3E03CD0E991EFBFF991E991B991A991BF
:1000F2009991899179916991F9901990099018953E
:10010200EFEFEABBEBBBE2BBE0E0E1BB0895F8DF57
:10011200E0916A00EA60E0936A00E3E0E9BF789464
:10012200EFEF18D0E0E016D0FBCFFFCF0A921A9281
:10013200FA926A937A938A939A93AA93BA93EA93D6
:10014200FA93EFB7EA930895EBBBA8EEB3E006D0BB
:10015200EFE00895EBBBA8EEB3E000C0109639F0D3
:10016200A89580ED97E00197F1F71197C9F70895E7
:00000001FF
